:040000000C947B01E0
:100004000C9400000C9400000C9400000C9400006C
:100014000C9400000C9400000C9400000C9400005C
:100024000C9400000C9400000C9400000C9400004C
:100034000C9400000C9400000C9400000C9400003C
:100044000C9400000C9400000C9400000C9400002C
:10005400536147754E000000000000000053530038
:100064001027E80364000A000100001000011000DA
:1000740001000A4C4F4F50000A2D2D2D205452419F
:100084004E534D495353494F4E202D20312D2D2D84
:100094002D000A094E6F726D616C20646174615F9A
:1000A4007478315B305D3D25632C20646174615F3D
:1000B4007478315B315D3D2564000A09456E6372D5
:1000C400797020646174615F7478315B305D3D25C3
:1000D400632C20646174615F7478315B315D3D250C
:1000E40064000A097061636B65742073656E740043
:1000F4000A096375725F6C657474657231203D2002
:10010400726F626F436F6E74726F6C2829203D208A
:100114002563000A2D2D2D20524543455054494F47
:100124004E202D20312D2D2D2D000A095265636599
:100134006976656420646174615F7478315B305DF5
:100144003D25632C20646174615F7478315B315D9B
:100154003D256400096C6F6F70636F756E74204584
:100164004E444544203D202564000A094E6F2E204C
:100174006F66205072676120757064617465203DFC
:100184002025642074696D6573000A0944656372EF
:10019400797020646174615F7478315B305D3D25F2
:1001A400632C20646174615F7478315B315D3D253B
:1001B40064000A092850494E472053554343455388
:1001C4005329000A092850494E47204641494C45C5
:1001D4004429000A0963757273657131203D202535
:1001E40064000A2D2D2D205452414E534D49535332
:1001F400494F4E202D20322D2D2D2D000A094E6FF2
:10020400726D616C20646174615F7478325B305D1F
:100214003D25632C20646174615F7478325B315DC9
:100224003D2564000A09456E637279702064617427
:10023400615F7478325B305D3D25632C20646174AA
:10024400615F7478325B315D3D2564000A09637532
:10025400725F6C657474657232203D20726F626FD8
:10026400436F6E74726F6C2829203D202563000A49
:100274002D2D2D20524543455054494F4E202D20BD
:10028400322D2D2D2D000A0952656365697665644A
:1002940020646174615F7278325B305D3D25642057
:1002A400646174615F7278325B315D3D25640A007C
:1002B4000A09446563727970746420646174615FCF
:1002C4007478325B305D3D25632C20646174615F1A
:1002D4007478325B315D3D2564000A09637572737D
:1002E400657132203D202564000005006001540042
:1002F4000000F894EE27ECBBF1E0FBBFEBBFE5BFD9
:10030400F8E1F1BDE1BD8DE0A2E0BB27ED938A9554
:10031400E9F780E094E0A0E6ED930197E9F7EEEECB
:10032400F2E085919591009761F0A591B5910590C2
:100334001590BF01F00105900D920197E1F7FB01C3
:10034400F0CFEFE5EDBFE4E0EEBFC0E6D1E00C9402
:10035400AB01299789E0A0E0B0E0EAE5F0E00E9473
:10036400230A40E050E0E0E0EE83EC83ACD1E6E722
:10037400F0E0FA93EA9380E00E944608229684997A
:1003840002C0859901C0C7C0E2ECE0936901E09323
:100394006801E0936701E09366010E946808ECE756
:1003A400F0E0FA93EA9380E00E9446082296E885FA
:1003B400ED83E6E9F0E00E94760888E00E944608B2
:1003C4002A96ED81E8830E948508DCD4EEEBF0E008
:1003D4000E94760888E00E9446082A960E949008A7
:1003E4000E94990866D3E03019F06ED3E03009F426
:1003F400F9CFE6EEF0E0FA93EA9380E00E949D08DC
:10040400E887E4EFF0E00E94A30884E00E94460835
:100414002696EE81EF5FEE830E94AC08E7E1F1E0FF
:10042400FA93EA9380E00E944608229620E030E0A6
:100434002032EEE43E07E8F43CD3E03019F040D338
:10044400E03009F40CC00E949008F5D2EEE2F1E02D
:100454000E94760888E00E9446082A960AC0EFE1C6
:10046400FEE4E217F30711F4E0E0ED832F5F3F4F62
:10047400DFCFE8E5F1E00E94B40884E00E94BD0803
:10048400EA81AE81EA17E9F000E010E0AA81EE818A
:100494000E94C10830F4E0E0EA930DD40F5F1F4FCF
:1004A400F5CFEEE6F1E0FA93EA93AC81E885EA1B36
:1004B400FF27662777270E94100A84E00E944608D7
:1004C40026960E94850885D4EEE8F1E00E9476081D
:1004D40088E00E94C808AD81EA1731F4E6EBF1E048
:1004E400FA93EA9380E005C0E7ECF1E0FA93EA932B
:1004F40080E00E9446082296EE81EF5FEA83E7EDF2
:10050400F1E0FA93EA93EC81FF27662777270E94AC
:10051400100A84E0BCC0849B02C0859B01C0BEC09D
:10052400E2ECE0936901E0936801E0936701E093F2
:100534006601E3EC0E946808E6EEF1E0FA93EA93C0
:1005440080E00E9446082296EF81EB83E0E0F2E02F
:100554000E94CC0888E00E9446082A96EB81E88332
:100564000E94DB080FD4E8E2F2E00E94CC0888E0A5
:100574000E9446082A960E94E5080E94990899D28A
:10058400E03019F0A1D2E03009F4F9CFE6EEF0E062
:10059400FA93EA9380E00E949D08EF83E0E5F2E09D
:1005A4000E94A30884E00E9446082696EC81EF5F2F
:1005B400EC830E94AC08E3E7F2E0FA93EA9380E06C
:1005C4000E944608229620E030E02032EEE43E0706
:1005D400E8F46FD2E03019F073D2E03009F40CC0C3
:1005E4000E94E50828D2EAE8F2E00E94CC0888E0FC
:1005F4000E9446082A960AC0EFE1FEE4E217F307D8
:1006040011F4E0E0EB832F5F3F4FDFCFE8E5F1E04B
:100614000E94B40884E00E94BD08E981AC81EA1715
:1006240069F000E010E0A981EC810E94C10830F477
:10063400E1E0EA9340D30F5F1F4FF5CF0E94DB0840
:10064400C8D3E4EBF2E00E94CC0888E00E94C8081A
:10065400AB81EA1731F4E6EBF1E0FA93EA9380E038
:1006640005C0E7ECF1E0FA93EA9380E00E944608C3
:100674002296EC81EF5FEA83EEEDF2E0FA93EA93DF
:10068400EB81FF27662777270E94100A84E00E94E7
:100694004608269684E091E00197F1F7AD81A436EF
:1006A40021F40E94EE08E0690AC0AB81A83C21F461
:1006B4000E94EE08E06603C00E94EE08E065E5BB18
:1006C40060D055CEFFCF1A930A933ED0E8E1EAB941
:1006D400E3E3E9B954D2EBE00E94F308E0E00E94BE
:1006E400F308E3E0EA93EA93E5E0EA93EFE00E949B
:1006F400F708E0E0F0E0FA93EA93E3ECEA93E4EC41
:10070400EA93E5ECEA93E6EC0E94F708E2E00E9443
:10071400FD080E94FD08EA93E0E0EA9372D00E948B
:100724000109E0E0EA9340D20E940109E1E0EA9382
:100734003BD2E0E0EABBEFEFEBBBE1B3EF7CE1BB24
:10074400E2B3E063E2BB1AC01A930A93EFEFE4BB8F
:10075400EAEAE5BB00E010E00A30E0E01E0764F4DA
:10076400E5B3E095E5BBE8ECF0E0FA93EA930E9488
:10077400DE090F5F1F4FF0CFEFE0E5BB0991199140
:100784000895042C052841F4E1E0F0E04E2E5F2E9C
:100794000E940A09E36005C0442455240E940A0902
:1007A400EC60E5BB08950A93E9B3E095E13011F4F8
:1007B40006E425C0E9B3E095E33011F40CE41FC06E
:1007C400E9B3E095E43011F402E519C0E9B3E0952A
:1007D400E03011F403E513C0E9B3E095E23011F41D
:1007E40002E40DC0E9B3E095E73011F405E507C074
:1007F400E9B3E095E63011F404E401C003E5E02F29
:1008040073C12597EA8DE883E1E00E940F09E98D21
:10081400E883E2E00E940F09E88DE883E3E00E94A8
:100824000F09EF89E883E4E00E940F09EE89E88369
:10083400E5E00E940F09ED89E883E6E00E940F09D4
:10084400EB89FC89309709F002C00E941A09FA93D7
:10085400EA93E5E0F0E00E9422091AD1E989FA89D5
:10086400309709F007C0E2ECE883E983EA83EB837D
:10087400EC83FE01FA93EA93E5E0F0E00E94270995
:1008840007D1E8890E942C09E2E0EA9301D1EF85BF
:100894000E942C09E3E0EA93FBD0EE850E942C0928
:1008A400E4E0EA93F5D0ED850E942C09E5E0EA93B3
:1008B400EFD0EB85FC85309709F002C00E941A093D
:1008C400FA93EA93E5E0F0E0FA93EA93D8D0EA8564
:1008D400E883E1E10E940F09E985E883E2E10E94EF
:1008E4000F09E885E883E3E10E940F09EF81E883BB
:1008F400E4E10E940F09EE81E883E5E10E940F091B
:10090400ED81E883E6E10E940F09EC8DE27031F09D
:10091400EB8DEA93ED8DEA9306D003C0EC8DEA9358
:1009240020D06D9608951A930A93EA81E260EA83CF
:10093400E0E0EA93FE013396FA93EA930E943509C4
:1009440088EB9BE00197F1F7EA81E17009F405C0B7
:10095400EB81E03011F08DD001C089D0198108817C
:1009640095C0E881ED7FE883E0E00E940F097FD025
:1009740019C11A930E943B09EDB7FEB7FA93EA93A3
:100984000F930E943F090F911E2F00FD11C00160BB
:10099400E0E0EA93EDB7FEB7FA93EA930F930E946F
:1009A40035090F91EA81E03011F063D001C05FD0C6
:1009B40019810881239608950E943B09EDB7FEB77B
:1009C400FA93EA930F930E943F090F9100FF8CC0A2
:1009D4000E7FE0E0EA93EDB7FEB7FA93EA930F9344
:1009E4000E9435090F9143D07FC0EC81EF71E06222
:1009F4000E9445090E94220979D0F7C1EC81EF7168
:100A04000E9445090E94270971D0EFC10A93E0EAC8
:100A1400EA93ED81FE81FA93EA93ED81FE810E94CF
:100A2400220964D00E2FA981A13009F41AD0E02F35
:100A34000881269608950A931AD0E1E60E944D098A
:100A44000E94270953D00E2F14D0E02F0881CDC166
:100A5400EFEF0E94F708E0E0F0E00E94270946D09B
:100A6400089507D08BE18A95F1F701D00895C298D3
:100A74000895C29A0895C4980895C49A0895E0E127
:100A84000E944509FA93EA930E94F7042496089574
:100A9400A881E5E0EA1708F4A8C1E881E65F0E94AE
:100AA4004D09FA93EA930E94F7049FC10E942A0514
:100AB4000895C39B02C0E0E00895E1E0089508951D
:100AC4000E945805E07408950E945805E072089544
:100AD4000A9300E7E7E0EA93EDB7FEB7FA93EA93E7
:100AE4000F930E9435090F91099108950A930E946A
:100AF4003D050E81EDB7FEB7FA93EA930F93E1E05B
:100B0400F0E00E94270912D00F91EC81FD81FA9345
:100B1400EA93EC81FD81FA93EA93ED81EA9306D09E
:100B24000E943F05E02F0881279608950E94180A25
:100B340000E010E0EC81FD810E171F07E0F4EB816B
:100B4400E03089F0E02FF12FAE81BF81EA0FFB1F67
:100B5400FF93EF930E945509EC91EA931ED0AF9155
:100B6400BF91EC9305C00E9455092C912A9315D08E
:100B74000F5F1F4FDFCF0E941F0A28960895E7B327
:100B8400E46BE7BBE7B3E77BE7BBC49AE0E5EDB909
:100B9400EDB1EC7FEDB970980895E881EFB9779BDA
:100BA400FECFEFB1219608950E94160A20E030E0AE
:100BB4006624772488249924AA24BB24CC24DD2405
:100BC400ED81E030C9F500E010E00030E1E01E07FF
:100BD40040F4A02FB12FA659BE4F0C930F5F1F4FA7
:100BE400F4CF00E010E00030E1E01E0720F5AAE6B3
:100BF400B1E00E945C09FF93EF930E946509AF91F5
:100C0400BF910E947109AAE6B1E00E947909E659F0
:100C1400FE4FFF93EF93AAE6B1E0A20FB31FEC914E
:100C2400AF91BF91EC93A22FB32FA659BE4F4C9313
:100C34000F5F1F4FD8CF3BC0AD81A130C1F500E09D
:100C440010E00030E1E01E0740F4A02FB12FA659B8
:100C5400BD4F0C930F5F1F4FF4CF00E010E0003046
:100C6400E1E01E0720F5AAE6B2E00E945C09FF93CA
:100C7400EF930E946509AF91BF910E947109AAE6A2
:100C8400B2E00E947909E659FD4FFF93EF93AAE67B
:100C9400B2E0A20FB31FEC91AF91BF91EC93A22FDE
:100CA400B32FA659BD4F4C930F5F1F4FD8CF0E944F
:100CB4001D0A2A9608950A93E981E03079F5A62D54
:100CC400B72D0E947F096E2E7F2E0E948309AA2DC4
:100CD400BB2D0E948909AE2EBF2EAAE6B1E0A60D57
:100CE400B71D0C91E62DF72DE659FE4FFF93EF93B8
:100CF4000E948F09AF91BF91EC93AA2DBB2DA659E9
:100D0400BE4F0C930E948309EF930E948F09AF9109
:100D14000E949509E659FE4FE08131C0A981A130B6
:100D240071F5A82DB92D0E947F098E2E9F2E0E9449
:100D34009B09AC2DBD2D0E948909CE2EDF2EAAE67B
:100D4400B2E0A80DB91D0C91E82DF92DE659FD4F1F
:100D5400FF93EF930E94A109AF91BF91EC93AC2D47
:100D6400BD2DA659BD4F0C930E949B09EF930E9481
:100D7400A109AF910E949509E659FD4FE0810881D0
:100D8400229608951A930A9300E010E0EB81FC8107
:100D94000E171F07D0F4E02FF12FAD81BE81EA0FAB
:100DA400FB1FFF93EF93E02FF12FAE0FBF1FEC91CA
:100DB400EF93EA81EA930E945D06AF91EA27AF912F
:100DC400BF91EC930F5F1F4FE1CF198108812796E4
:100DD4000895EB81FC81FA93EA93EB81FC81FA9309
:100DE400EA93EC81EA930E94C406259608955F9BDA
:100DF400FECFECB108955D9BFECFE881ECB921965E
:100E04000895A881B9810E94080A309749F00E9488
:100E1400080A3196ED93FC933197AA81A08304C00C
:100E2400EA81EA930E94FD062396089526970E947C
:100E3400150A00E0E889F9893196E88BF98B319736
:100E4400E4913E2FE03011F40C944208E02FE0309E
:100E540039F4353211F401E002C00E94A7090FC130
:100E6400E130B1F4353221F40E94A70900E007C152
:100E740002E050E010E03D3211F411E000C13B32D9
:100E840011F45BE2FCC0303211F450E2F8C002C04D
:100E9400E23039F440E003E0303311F41068EFC07D
:100EA40004C0E33011F00C944108303310F03A33AD
:100EB40008F009C0A42FEAE0EA9FE02D4E2FE32FAB
:100EC400E0534E0FDCC0E32FE33631F40E94AE0949
:100ED400EC910E94B509D2C0E33741F40E94AE09F7
:100EE4000E94BC090E94C9090E2F0AC0E03761F4B0
:100EF4000E94AE090E94BC090E94D3090E2F1860FB
:100F040012601F7720E038C0E43611F0E93611F49E
:100F1400146002C0E53731F4E4E6F0E0EE83FF83C9
:100F240005E00DC0E83511F4186004C0E83711F08D
:100F34000C944008EEE6F0E0EE83FF8304E012FF39
:100F440015C00E94AE090E94080AEA87FB87AA8599
:100F5400BB8510972CF40E94EE09EA87FB875DE2BB
:100F6400503011F00F5F01C01B7F06C00E94AE0914
:100F74000E94080AEA87FB8710FD11C0041778F461
:100F840017FF08C012FF04C01B7F352F015001C09A
:100F940030E301C030E20E94A7094150EFCF202F77
:100FA40011FF1AC02030B9F013FF08C0EE81FF8191
:100FB4003196EE83FF833197E49105C0AE81BF8102
:100FC400ED91AE83BF83EA930E94C309403009F0D8
:100FD40041502150E7CF4AC030E3EE81FF81329681
:100FE400EE83FF8332970E940C0AE887F987AA856B
:100FF400BB85AE17BF0720F03F5FAE1BBF0BC9F721
:10100400AA87BB87E9E3E31728F413FF02C0395F1B
:1010140001C0395D14FD1DC0E0E3E31730F0A8857D
:10102400B985A130E0E0BE0711F410610AC042178F
:1010340010F010FF01C011C030E217FF0AC030E306
:10104400106112FF06C01B7F5A939BD1403009F0F8
:1010540041507BD1403009F041502150A885B985D9
:10106400E1E0F0E0EA17FB0708F4B6CF10FF06C092
:10107400403021F04150E0E276D1FACF00E0DACE00
:101084000E941C0A62960895FF92F82E22971A93E2
:101094000A93DE010E94EA090A2F1B2FE0E0EA838B
:1010A400EB83DE0114960E94EA090E94080AFA936F
:1010B400EA931A930A93FE013696FA93EA930E94EE
:1010C4001807198108812496FF900895E09365011B
:1010D400E5E6F1E0FA93EA93E5E0F0E0FA93EA93C7
:1010E4000E9441050C94DE04FA93EA93EF81FF27F2
:1010F400662777270E94100AEC85FF276627772743
:101104000E94100A0895FE013596FA93EA93E1E0ED
:10111400F0E0FA93EA93E0E0EA930895FE0135964D
:10112400FA93EA93E2E0F0E0FA93EA930895E1E0B7
:10113400EA930C940805A8DF22960E946A050C9491
:10114400D503FA93EA93EA85FF27662777270E9457
:10115400100A089584E091E00197F1F7E1E0EA9341
:101164000C94BB04FA93EA93E22FF32F66277727B4
:101174000E94100A089588DF26960C946A05EA1BDB
:10118400A02FB12FF0E0AE17BF0708957DDF2A9698
:10119400E8810895FA93EA93ED81FF27662777277C
:1011A4000E94100AEA85FF27662777270E94100A03
:1011B4000895FE013396FA93EA93E1E0F0E0FA939E
:1011C400EA93EA930895FE013396FA93EA93E2E0F0
:1011D400F0E0FA93EA930895E5B3EF70E5BBE5B365
:1011E4000895EA93E1E0EA930895EA93E0E0F0E0F9
:1011F400FA93EA930895EA93E0E0EA930895E0E627
:10120400F1E0FA93EA93E5E0F0E0FA93EA930895C3
:10121400E5B3E07FE5BBE5B30895EA93FE013196BB
:10122400FA93EA93E1E0F0E0FA93EA930C94F7047A
:10123400E7EEE883E983EA83EB83EC83FE01089518
:10124400FA93EA93E0E0EA930895FA93EA93E1E0EB
:10125400EA930895E883FE01FA93EA93E1E0F0E06B
:10126400FA93EA930895E1E0F0E0FA93EA930C9498
:10127400F7040A93E0E0EA930895E1E0F0E0FA93DA
:10128400EA930C940005EA93EB81FC81FA93EA93C8
:10129400EB81FC810895EA93EC81FD81FA93EA9352
:1012A400EC81FD810895E02FF12FAE81BF81AE0F57
:1012B400BF1F0895A00FB11FEC91A22FB32FF0E030
:1012C400EA0FFB1F0895EE81FF81A02FB12F0E942A
:1012D400050AA885B985AE0FBF1FEC910895F0E00B
:1012E400AE0FBF1FFD01F0702E2F3F2F0895A00FEA
:1012F400B11F4C91E02FF12F08951196FD01F0706C
:101304000895AAE6B1E0A60DB71DEC910895F0E0AA
:10131400AE0FBF1FFD01F0700895AAE6B1E0AA0D5B
:10132400BB1DEC910895EA0FDF01B0E0FD01F07000
:101334000895AAE6B2E0A80DB91DEC910895AAE6B5
:10134400B2E0AC0DBD1DEC9108953A93ED85FE8598
:10135400FA93EA930C940307AE85BF851497AE877E
:10136400BF8714960895EA93ED85FE85FA93EA9370
:101374000C9403070E94080AEE83FF83FA93EA930E
:101384000895ED85FE85FA93EA930C940307A991D9
:10139400B991EE27FF276D91662311F03196FBCFAB
:1013A4000895AA27BB27E991F9910590002011F02F
:1013B4001196FBCFFD010895E991F991309639F02A
:1013C40080ED97E00197F1F7A8953197C9F7089553
:1013D4000024AF0DB01D0895E095F0953196089561
:1013E4000024112490E1AA0FBB1F001C111C0E1A2B
:1013F4001F0A18F40E0E1F1E01C0A1609A9599F7DA
:10140400FD01D0010895ECDFFD010895ED91FC91FB
:10141400119708950590F491E02D08957A936A93B5
:10142400FA93EA9308955A934A933A932A931A9310
:101434000A9308955D814C813B812A811981088139
:101444000895AC0FBD1F05900D928A95E1F708959C
:00000001FF
