:0A0000000C94C2000C9400000C9454
:10000A0000000C9400000C9400000C9400000C9466
:10001A0000000C9400000C9400000C9400000C9456
:10002A0000000C9400000C9400000C9400000C9446
:10003A0000000C9400000C9400000C9400000C9436
:10004A0000000C9400000C940000536147754E00A8
:10005A001027E80364000A000100001000011000E4
:10006A0001000A2D2D2D20524543455054494F4E2B
:10007A00202D2D2D2D000A097061636B6574207285
:10008A0065636569766564000A094E6F726D616C15
:10009A0020646174615F72785B305D3D2563206422
:1000AA006174615F72785B315D3D25640A000A09FB
:1000BA004E6F2E206F6620507267612075706461E2
:1000CA007465203D2025642074696D6573000A09F2
:1000DA0044656372797020646174615F72785B3021
:1000EA005D3D256320646174615F72785B315D3DBB
:1000FA0025640A000A637572736571203D202564C0
:10010A00000A2D2D2D205452414E534D4953534927
:10011A004F4E202D2D2D2D000A094E6F726D616CE8
:10012A0020646174615F72785B305D3D25632C20C9
:10013A00646174615F72785B315D3D2564000A0910
:10014A00456E6372797020646174615F72785B30A6
:10015A005D3D25632C20646174615F72785B315D5B
:10016A003D2564000A097061636B65742073656ECE
:10017A0074000500600154000000F894EE27ECBBFF
:10018A00F1E0FBBFEBBFE5BFF8E1F1BDE1BD8DE0FA
:10019A00A2E0BB27ED938A95E9F780E094E0A0E618
:1001AA00ED930197E9F7ECE7F1E0859195910097D6
:1001BA0061F0A591B59105901590BF01F0010590E8
:1001CA000D920197E1F7FB01F0CFEFE5EDBFE4E017
:1001DA00EEBFC0E6D1E00C94F200279720E0A5D04C
:1001EA00E1E0EA937AD2ECE6F0E0FA93EA9380E06F
:1001FA000E94DB05229612D3E03019F016D3E030C4
:10020A0009F4F9CFE0E8F0E0FA93EA9380E00E947B
:10021A00FD050E940106C3D2E2E9F0E00E940A0647
:10022A0088E00E94DB052A96AE812A17E1F000E0F9
:10023A0010E0EE81E21BA02FB12FF0E0AE17BF074E
:10024A0020F424D10F5F1F4FF4CFE8EBF0E0FA93CC
:10025A00EA93E02FF12F662777270E94FA0684E0B7
:10026A000E94DB0526960E94190667D1E8EDF0E0A8
:10027A000E940A0688E00E94DB052A96EE81EF5F5B
:10028A002E2FEEEFF0E0FA93EA93E22FFF2766278C
:10029A0077270E94FA0684E00E94DB05269680E909
:1002AA0091E00197F1F7E7EEEC83EB83EA83E983C8
:1002BA000E9422060E94270633D2EBE0F1E0FA936D
:1002CA00EA9380E00E94DB052296E2E2F1E00E94D6
:1002DA000A0688E00E94DB052A960E9419060AD1BE
:1002EA00E8E4F1E00E940A0688E00E94DB052A960B
:1002FA000E940106E1E0EA933DD290D2E03019F083
:10030A0098D2E03009F4F9CFEEE6F1E0FA93EA93F5
:10031A0080E00E94FD05EE81EF5FEE8380E991E0C7
:10032A000197F1F758D05CCFFFCF39D0E8E1EAB9AD
:10033A00E3E3E9B9D9D2EBE0EA93E1E00E942D06C2
:10034A00E4E0EA93E3E0EA93EA93E5E0EA93EFE094
:10035A000E943106E0E0F0E0FA93EA93E3ECEA93D4
:10036A00E4ECEA93E5ECEA93E6EC0E943106E0E07D
:10037A000E942D06E2E00E942D06E0E00E942D0672
:10038A00E7D0E0E6F1E0FA93EA93E5E0F0E0FA93E9
:10039A00EA9324D0E0E0EABBEFEFEBBB08951A93AF
:1003AA000A93EFEFE4BBEAEAE5BB00E010E00A30AB
:1003BA00E0E01E075CF40E943706E8ECF0E0FA93EE
:1003CA00EA930E94C8060F5F1F4FF1CFEFE0E5BB2B
:1003DA000991199108950E94370608950E9400070D
:1003EA0020E030E0442455246624772400E010E01D
:1003FA000030E1E01E0740F4A02FB12FAB59BE4FE9
:10040A000C930F5F1F4FF4CF00E010E00030E1E0E3
:10041A001E07C0F5A5E6B1E0A00FB11FEC91A22F0F
:10042A00B32FF0E0EA0FFB1FFF93EF93ED81FE81FC
:10043A00A02FB12F0E94EF06AF81B885AE0FBF1F64
:10044A00EC91AF91BF910E943B062E2F3F2FA5E65C
:10045A00B1E0A00FB11F4C91E02FF12FEB59FE4FE5
:10046A00FF93EF93A5E6B1E0A20FB31FEC91AF9112
:10047A00BF91EC93A22FB32FAB59BE4F4C930F5F92
:10048A001F4FC4CF0E940707299608950A93A42DE7
:10049A00B52D1196FD01F0704E2E5F2E0E94410679
:1004AA00A62DB72D0E943B066E2E7F2EA5E6B1E043
:1004BA00A40DB51D0C91E42DF52DEB59FE4FFF93BC
:1004CA00EF930E944706AF91BF91EC93A62DB72DEB
:1004DA00AB59BE4F0C930E944106EF930E94470608
:1004EA00AF91EA0FDF01B0E0FD01F070EB59FE4F6A
:1004FA00E081AFC11A930A9300E010E0EA81FB8120
:10050A000E171F07C0F4E02FF12FAC81BD81EA0F4F
:10051A00FB1FFF93EF93E02FF12FAE0FBF1FEC915C
:10052A00EF930E944B02AF91EA27AF91BF91EC93F0
:10053A000F5F1F4FE3CF19812FC1EA81FB81FA9325
:10054A00EA93EA81FB81FA93EA930E947F0252C1FD
:10055A002597EA8DE883E1E00E944D06E98DE8835C
:10056A00E2E00E944D06E88DE883E3E00E944D0632
:10057A00EF89E883E4E00E944D06EE89E883E5E02E
:10058A000E944D06ED89E883E6E00E944D06EB895C
:10059A00FC89309709F002C00E945806FA93EA9340
:1005AA00E5E0F0E00E94600627D1E989FA893097F0
:1005BA0009F007C0E2ECE883E983EA83EB83EC8382
:1005CA00FE01FA93EA93E5E0F0E00E94650614D191
:1005DA00E8890E942206E1E0F0E0FA93EA93E2E079
:1005EA00EA930AD1EF850E942206E1E0F0E0FA934D
:1005FA00EA93E3E0EA9300D1EE850E942206E1E065
:10060A00F0E0FA93EA93E4E0EA93F6D0ED850E94EB
:10061A002206E1E0F0E0FA93EA93E5E0EA93ECD00F
:10062A00EB85FC85309709F002C00E945806FA93C0
:10063A00EA930E942706EA85E883E1E10E944D06D3
:10064A00E985E883E2E10E944D06E885E883E3E173
:10065A000E944D06EF81E883E4E10E944D06EE8197
:10066A00E883E5E10E944D06ED81E883E6E10E9418
:10067A004D06EC8DE27031F0EB8DEA93ED8DEA9345
:10068A0006D003C0EC8DEA9320D06D9608951A9394
:10069A000A93EA81E260EA83E0E0EA93FE01339694
:1006AA00FA93EA930E946A0688EB9BE00197F1F7B6
:1006BA00EA81E17009F405C0EB81E03011F08DD0D8
:1006CA0001C089D01981088195C0E881ED7FE8834E
:1006DA00E0E00E944D067FD01AC11A930E9470066C
:1006EA00EDB7FEB7FA93EA930F930E9474060F913F
:1006FA001E2F00FD11C00160E0E0EA93EDB7FEB7DE
:10070A00FA93EA930F930E946A060F91EA81E03006
:10071A0011F063D001C05FD0198108812396089532
:10072A000E947006EDB7FEB7FA93EA930F930E9400
:10073A0074060F9100FF8DC00E7FE0E0EA93EDB7DB
:10074A00FEB7FA93EA930F930E946A060F9143D079
:10075A0080C0EC81EF71E0620E947A060E94600616
:10076A007AD057C0EC81EF710E947A060E94650622
:10077A0072D04FC00A93E0EAEA93ED81FE81FA93C0
:10078A00EA93ED81FE810E94600665D00E2FA98151
:10079A00A13009F41AD0E02F0881269608950A9309
:1007AA001AD0E1E60E9482060E94650654D00E2FF6
:1007BA0014D0E02F08812DC0EFEF0E943106E0E04F
:1007CA00F0E00E94650647D0089507D08BE18A952C
:1007DA00F1F701D00895C2980895C29A0895C4986D
:1007EA000895C49A0895E0E10E947A06FA93EA937A
:1007FA000E94AE0324960895A881E5E0EA1708F45A
:10080A0008C0E881E65F0E948206FA93EA930E9492
:10081A00AE03259608950E94E1030895C39B02C082
:10082A00E0E00895E1E0089508950E941004E0745C
:10083A0008950E941004E07208950A9300E7E7E021
:10084A00EA93EDB7FEB7FA93EA930F930E946A060A
:10085A000F91099108950A930E94F4030E81EDB74E
:10086A00FEB7FA93EA930F93E1E0F0E00E9465067F
:10087A0012D00F91EC81FD81FA93EA93EC81FD810C
:10088A00FA93EA93ED81EA9306D00E94F603E02FE9
:10089A000881279608950E94020700E010E0EC8183
:1008AA00FD810E171F07E0F4EB81E03089F0E02F9D
:1008BA00F12FAE81BF81EA0FFB1FFF93EF930E94D6
:1008CA008A06EC91EA931ED0AF91BF91EC9305C0D2
:1008DA000E948A062C912A9315D00F5F1F4FDFCFF3
:1008EA000E94090728960895E7B3E46BE7BBE7B3CC
:1008FA00E77BE7BBC49AE0E5EDB9EDB1EC7FEDB972
:10090A0070980895E881EFB9779BFECFEFB12196F1
:10091A0008955F9BFECFECB108955D9BFECFE88101
:10092A00ECB921960895A881B9810E94F206309700
:10093A0049F00E94F2063196ED93FC933197AA8111
:10094A00A08304C0EA81EA930E9492042396089540
:10095A0026970E94FF0600E0E889F9893196E88B1C
:10096A00F98B3197E4913E2FE03011F40C94D705BE
:10097A00E02FE03039F4353211F401E002C00E9470
:10098A0091060FC1E130B1F4353221F40E9491068B
:10099A0000E007C102E050E010E03D3211F411E03E
:1009AA0000C13B3211F45BE2FCC0303211F450E278
:1009BA00F8C002C0E23039F440E003E0303311F409
:1009CA001068EFC004C0E33011F00C94D605303340
:1009DA0010F03A3308F009C0A42FEAE0EA9FE02DAC
:1009EA004E2FE32FE0534E0FDCC0E32FE33631F4F2
:1009FA000E949806EC910E949F06D2C0E33741F408
:100A0A000E9498060E94A6060E94B3060E2F0AC0EC
:100A1A00E03761F40E9498060E94A6060E94BD066D
:100A2A000E2F186012601F7720E038C0E43611F0EC
:100A3A00E93611F4146002C0E53731F4EAE5F0E072
:100A4A00EE83FF8305E00DC0E83511F4186004C099
:100A5A00E83711F00C94D505E4E6F0E0EE83FF8365
:100A6A0004E012FF15C00E9498060E94F206EA8767
:100A7A00FB87AA85BB8510972CF40E94D806EA87C3
:100A8A00FB875DE2503011F00F5F01C01B7F06C08B
:100A9A000E9498060E94F206EA87FB8710FD11C0A1
:100AAA00041778F417FF08C012FF04C01B7F352F04
:100ABA00015001C030E301C030E20E94910641506A
:100ACA00EFCF202F11FF1AC02030B9F013FF08C052
:100ADA00EE81FF813196EE83FF833197E49105C061
:100AEA00AE81BF81ED91AE83BF83EA930E94AD06CA
:100AFA00403009F041502150E7CF4AC030E3EE813F
:100B0A00FF813296EE83FF8332970E94F606E887CA
:100B1A00F987AA85BB85AE17BF0720F03F5FAE1BDA
:100B2A00BF0BC9F7AA87BB87E9E3E31728F413FFCA
:100B3A0002C0395F01C0395D14FD1DC0E0E3E3174F
:100B4A0030F0A885B985A130E0E0BE0711F4106144
:100B5A000AC0421710F010FF01C011C030E217FF9F
:100B6A000AC030E3106112FF06C01B7F5A93F0D00F
:100B7A00403009F04150D0D0403009F04150215066
:100B8A00A885B985E1E0F0E0EA17FB0708F4B6CFDB
:100B9A0010FF06C0403021F04150E0E2CBD0FACF3E
:100BAA0000E0DACE0E94060762960895FF92F82EB8
:100BBA0022971A930A93DE010E94D4060A2F1B2F4A
:100BCA00E0E0EA83EB83DE0114960E94D4060E94D9
:100BDA00F206FA93EA931A930A93FE013696FA9367
:100BEA00EA930E94AD04198108812496FF90089522
:100BFA00DDDF22960C942204FE013596FA93EA93DD
:100C0A00E2E0F0E0FA93EA930895FA93EA93EF8127
:100C1A00FF27662777270E94FA06EC85FF276627B3
:100C2A0077270E94FA060895FE013596FA93EA9309
:100C3A00E1E0F0E0FA93EA930895E883FE01FA937B
:100C4A00EA930895E5E0F0E0FA93EA930C94F80346
:100C5A00EA93E0E0EA930895EA93E0E0F0E0FA9399
:100C6A00EA930895E5B3E095E5BB0895F0E0AE0F89
:100C7A00BF1FFD01F0700895A5E6B1E0A40DB51DF2
:100C8A00EC910895A5E6B1E0A60DB71DEC91089583
:100C9A00EA93FE013196FA93EA93E1E0F0E0FA93DF
:100CAA00EA930C94AE03E7EEE883E983EA83EB83E5
:100CBA00EC83FE010895FA93EA93E0E0EA9308953B
:100CCA00FA93EA93E1E0EA930895E1E0F0E0FA9317
:100CDA00EA930C94AE030A93E0E0EA930895E1E004
:100CEA00F0E0FA93EA930C94B703EA93EB81FC8160
:100CFA00FA93EA93EB81FC810895EA93EC81FD81F2
:100D0A00FA93EA93EC81FD810895E02FF12FAE81E9
:100D1A00BF81AE0FBF1F08953A93ED85FE85FA9302
:100D2A00EA930C949804AE85BF851497AE87BF8763
:100D3A0014960895EA93ED85FE85FA93EA930C9446
:100D4A0098040E94F206EE83FF83FA93EA930895C9
:100D5A00ED85FE85FA93EA930C949804A991B991CA
:100D6A00EE27FF276D91662311F03196FBCF089588
:100D7A00AA27BB27E991F9910590002011F0119655
:100D8A00FBCFFD010895E991F991309639F080ED94
:100D9A0097E00197F1F7A8953197C9F708950024CC
:100DAA00AF0DB01D0895E095F09531960895002491
:100DBA00112490E1AA0FBB1F001C111C0E1A1F0A56
:100DCA0018F40E0E1F1E01C0A1609A9599F7FD0135
:100DDA00D0010895ECDFFD010895ED91FC91119782
:100DEA0008950590F491E02D08957A936A93FA9301
:100DFA00EA9308955A934A933A932A931A930A9331
:100E0A0008955D814C813B812A8119810881089569
:00000001FF
