:060000000C94C7050C94EE
:1000060000000C9400000C9400000C9400000C946A
:1000160000000C9400000C9400000C9400000C945A
:1000260000000C94F7050C9400000C9400000C944E
:1000360000000C9400000C9400000C9400000C943A
:1000460000000C9400000C9400000C9400000000CA
:10005600000000000000000000000000000000009A
:100066000000000000000000000000000000DB02AD
:100076003F03D3022709E612D209871E3D04A902CF
:100086000104C302210471023501AC00A002B100D3
:100096005A0133016C015F003B000A0000000000BA
:1000A6000000000023000400000000000000300CE7
:1000B600780EF510E903A507F113200133009C0023
:1000C6001F000000DC02AF00040000002C00DA0173
:1000D600A404AE071B02A700B8004E0000001E00D5
:1000E60034001E00C1000000000000000000EE1DEC
:1000F6001911970F980867065B0131028600000008
:10010600170014001D056A030000000000001C060D
:1001160015032910704438335D06340005002200AB
:1001260044007B00D802570178004D004C00810145
:10013600B7003201AB002902A300030038004800D3
:100146007B004400DB00C4002A0029002500C00211
:10015600FC021C03B6032B09CE07E90199020A012A
:100166007B0189008A00D902B003780504020000E9
:100176000000000000000000000000000000000079
:100186000000000000000000000000000000000069
:100196000000000000000000000000000000000059
:1001A6000000000000000000000000000000E40164
:1001B6003B0A68049107220FEE018D03200B6C06A3
:1001C60037019E00350136028201A6008C002F0100
:1001D600F9028E01740046002700400071004300BA
:1001E600250003000400190002000A0000000C01AB
:1001F600D0006F00E104DE06B712151B6317BE17A9
:10020600F008BC04AA023F0BAD021A00000053011D
:100216004B028D00FF00E200780014032301010168
:10022600CB02DA03B40063003C00000000008E003D
:100236007F0067007B0009015D0B8208200CF70038
:100246005F018E075F099701DE0235000000130289
:100256001C01F902A103A601330647009A0BB50259
:1002660041008D0030023C032F031F00A0004D000B
:10027600D1007F01E7005200470152013A014704CD
:10028600B300BE011E004C01E800C60103003202A5
:10029600730626029500B600D200FF0099025401AB
:1002A60055010C04E901AA02C7043E0170010000D1
:1002B6000000000000000000000000000000000038
:1002C6000000000000000000000000000000000028
:1002D6000000000000000000000000000000000018
:1002E60000000000000000000000000000007A038B
:1002F6008E098C00A9013411B4055F0314010E03A5
:100306006A03E004EA011E02E700D8028B00FD043E
:10031600E5030E027801AF02440331000300040036
:100326001F00E90020000000000000000000030696
:10033600DB685CBAB42DE07266117A040F003C00EB
:1003460004040D0FAA060E000F000700000040056A
:1003560040016F017204ED042A01C2004800E40066
:100366001E00F30223000000000000000000D00081
:1003760025074607D00227040503C800050001002B
:100386002D002F03300000002500180078005104CE
:10039600FB01EF01EA08330335025F001300A000FA
:1003A600FB04FA1ABE00060013001E000A006D01C7
:1003B600A3002C0112055E05CF0038003000350081
:1003C60085016E0114002600800067006A009D0109
:1003D60036016606000867070101EF003A02C5010B
:1003E60051036B0BDF0708044106EC0050000000C8
:1003F60000000000000000000000000000000000F7
:1004060000000000000000000000000000000000E6
:1004160000000000000000000000000000000000D6
:100426000000000000000000000000000000EA0DCF
:10043600662A3F0302022902DE017B0012014C01FB
:100446004201380119016B00B0002201A401FF002E
:100456006402BF0051011F000E00060000000000EC
:1004660000000000000002000000000000004D1B1C
:10047600A211F1754204E40A0B1644003C0009007F
:100486002100050037000C002A0048000200F10197
:100496002004E0002901A0008E010A0000000000EF
:1004A6000000000000000000000000000000300610
:1004B60051078015E1104434590199001A004C0087
:1004C600550003000700350021002B0000001C0228
:1004D6007D032A003103C904BA040E02D000780055
:1004E6004400100006000000040000000400E100C3
:1004F6007601A1026B001202FC00E70031007B00CE
:1005060053000000000031000A0042006300BA00F8
:100516004A0263009E01F8007B00E90114007100A5
:100526004F017A00D40184010901EF002201000085
:1005360000000000000000000000000000000000B5
:1005460000000000000000000000000000000000A5
:100556000000000000000000000000000000000095
:100566000000000000000000000000000000D7149A
:1005760050457B02AA070C066B05DE08E40038002E
:1005860077005F022D019D013502AE0136020B0197
:10059600DF022E012F01B9004500220000000000F5
:1005A6000000000000000000000000000000120C27
:1005B600C70EE961A204D905FE099E0213000300D5
:1005C60008000C002D0020002700000000006E032C
:1005D600BB035A056101BB01E300030000000000F4
:1005E60000000000000000000000000000009F0561
:1005F600370D461B6411A72F8B05C1021300070098
:100606004000670000000700150046000F00650364
:100616001606AC01F404A011FF01EB01460115001A
:1006260045001C001200000000000A00500084056E
:100636008F01E301E401E6028402C1009C016A0025
:100646001500E00003002F00330054000F00F900EE
:100656000C01CC04B200470184029100200105027E
:10066600EC00BF00C00060008903DB0085000000CD
:100676000000000000000000000000000000000074
:100686000000000000000000000000000000B301B0
:1006960046FF0A00F2FF0A00E0011AFF9B09E3ED9C
:1006A6009B098C00C30108FF1500E0FF1500CA0175
:1006B60008FFB10843EFB1085000630108FF1B00B3
:1006C600E3FF1B006E0108FF4204DEF842047800D7
:1006D600E00008FF1F00F1FF1F00EF0008FFFA020D
:1006E6003BFCFA028C00480008FF220004002200AE
:1006F600580008FF790230FE7902A000B8FF08FF13
:100706002200FCFF2200A8FF08FF7902D00179022F
:10071600A00020FF08FF1F000F001F0011FF08FFA9
:10072600FA02C503FA028C009DFE08FF1B001D009D
:100736001B0092FE08FF42042207420478003DFE99
:1007460008FF15002000150036FE08FFB108BD1091
:10075600B10850004DFE46FF0A000E000A0020FEBA
:100766001AFF9B091D129B098C001027E8036400E1
:100776000A000100001000011000010080C00D0AEF
:100786000A2D2D2D2D2D2D2D2D2D2D2D2D2D2D2DB6
:100796002D0D0A000D0A566F436F526F426F2D31B1
:1007A600300D0A000D0A2D2D2D2D2D2D2D2D2D2D23
:1007B6002D2D2D2D2D2D2D2D0D0A000D0A564F49AF
:1007C600434520434F4E54524F4C204D4F44450D08
:1007D6000A000D0A5374617274696E672E2E2E0D0F
:1007E6000A00566F436F526F426F2D3130002D2035
:1007F600434F4E54524F4C204D4F4445202D000D33
:100806000A576F72642025643A2025640D0A000D8C
:100816000A2D2D2D2D2D2D2D2D2D2D2D2D2D2D2D25
:100826002D2D2D2D2D2D2D2D0D0A000D0A4D696E08
:10083600696D756D2064697374616E63653A202510
:10084600640D0A004D696E20446973743A2000599C
:100856006F7520736169643A200046524F4E5420EA
:10086600004C454654202000524947485420005326
:10087600544F502020004241434B20200053504506
:10088600454420434F4E54524F4C0025202000250E
:10089600200025004D4D41373236305120434F4E12
:1008A60054524F4C000D0A4F726967696E205B25E2
:1008B600642C25642C25645D0009537065656420ED
:1008C6005B25642C25642C25645D000D0A5B25647C
:1008D6002C25642C25645D00526573756C743A2072
:1008E600576F72642025640D0A0A0000020025066F
:1008F60094060200270696060200290698060200BC
:100906002B069A0602002D069C0602002F069E065E
:1009160002003106A00602003306A20602003506D2
:10092600A40602003706A60602003906A80602003B
:100936003B06AA0602003D06AC0602003F06AE06CE
:1009460002004106B00602004306B2060200450652
:10095600B40602004706B60602004906B8060200BB
:100966004B06BA0602004D06BC0602004F06BE063E
:1009760002005106C00602005306C20602005506D2
:10098600C40602005706C60602005906C80602003B
:100996005B06CA0602005D06CC0602005F06CE06AE
:1009A60002006106D00602006306D2060200650652
:1009B600D40602006706D60602006906D8060200BB
:1009C6006B06DA0602006D06DC0602006F06DE061E
:1009D60002007106E00602007306E20602007506D2
:1009E600E40602007706E60602007906E80602003B
:1009F6007B06EA0602007D06EC0602007F06EE068E
:100A060002008106F00602008306F2060200850651
:100A1600F40602008706F60602008906F8060200BA
:100A26008B06FA0602008D06FC0602008F06FE06FD
:100A360002009106000702009306020702009506CF
:100A46000407020097060607020099060807020037
:100A56009B060A0702009D060C0702009F060E076A
:100A66000200A10610070200A30612070200A5064F
:100A760014070200A70616070200A90618070200B7
:100A8600AB061A070200AD061C070200AF061E07DA
:100A96000200B10620070200B30622070200B506CF
:100AA60024070200B70626070200B9062807020037
:100AB600BB062A070200BD062C070200BF062E074A
:100AC6000200C10630070200C30632070200C5064F
:100AD60034070200C70636070200C90638070200B7
:100AE600CB063A070200CD063C070200CF063E07BA
:100AF6000200D10640070200D30642070200D506CF
:100B060044070200D70646070200D9064807020036
:100B1600DB064A070200DD064C070200DF064E0729
:100B26000200E10650070200E30652070200E5064E
:100B360054070200E70656070200E90658070200B6
:100B4600EB065A070200ED065C070200EF065E0799
:100B56000200F10660070200F30662070200F506CE
:100B660064070200F70666070200F9066807020036
:100B7600FB066A070200FD066C070200FF066E0709
:100B86000200010782070000F894EE27ECBBF1E0B3
:100B9600FBBFEBBFE5BFF8E1F1BDE1BD8DE0A2E033
:100BA600BB27ED938A95E9F780E098E0A0E6ED9300
:100BB6000197E9F7E2EFF8E085919591009761F0EA
:100BC600A591B59105901590BF01F00105900D9284
:100BD6000197E1F7FB01F0CFEFE5EDBFE8E0EEBFEF
:100BE600C0E6D2E00C949B14AA93EA93EFB7EA937B
:100BF600E5B0E1E0E0938304369AA091C605A23001
:100C060049F4EBE0E3BFE0E0E2BFEEE3ECBFE0E097
:100C1600E093C605E991EFBFE991A9911895CC2417
:100C2600DD24EFEFE1BBE2ECEFBDE2E1EEBDA0E0DB
:100C3600B0E00E94D91AFBBDEABDEEE4E7BDE0E2F2
:100C4600E6BDE2E0E9BFEE24E0E0E093830444245D
:100C560055240E946919EFE0E7BBE0EFE8BBA79ACD
:100C6600979A929893989498E8E1EAB9E7E6E9B9F1
:100C7600EBE0E3BFEEE3ECBFE4E8F7E0FA93EA93D8
:100C860080E00E9428182296EAE9F7E0FA93EA93B0
:100C960080E00E9428182296EAEAF7E0FA93EA939F
:100CA60080E00E9428182296E1ECF7E0FA93EA9396
:100CB60080E00E9428182296E8EDF7E0FA93EA937E
:100CC60080E00E9428182296E0E1EA930E943119FA
:100CD6000E94D118E2E00E946F19E8EEF7E0FA935D
:100CE600EA930E9415190E9474190E947A19E4EF7A
:100CF600F7E0FA93EA930E941519E0E0E0930F06F5
:100D0600B59B1DD2B69BB4D2E0E20E9480197894BE
:100D160002D097980895E0E0E0937E04442011F015
:100D26000C94E306552081F4A0918304A13059F474
:100D36000E948419A62DB72DF0E0EA0FFB1F6E2E38
:100D46007F2E0E94891912C0E1E0E51579F4A09181
:100D56008304A13059F40E948419A82DB92DF0E01E
:100D6600EA0FFB1F8E2E9F2E0E948919A0917E04EA
:100D7600AF3F99F4E0E0E0937E045394E2E0E5159A
:100D860010F4E1E04E2EE0E0E2BFEDE0E3BFEFEF6E
:100D9600ECBFE2E0E093C60512C0E2E0E51579F4A7
:100DA600A0918304A13059F40E948419AA2DBB2D69
:100DB600F0E0EA0FFB1FAE2EBF2E0E948919AECFC0
:100DC60086149704A8F4A814B90418F4E82DF92D8C
:100DD60008C0A614B70418F4EA2DFB2D02C0E62DB0
:100DE600F72D0E94A01AE0937C04F0937D0414C0B2
:100DF600A614B70418F4E62DF72D08C0A814B904F4
:100E060018F4EA2DFB2D02C0E82DF92D0E94A01A38
:100E1600E0937C04F0937D040895DD2079F4FE2DA3
:100E2600E0E0DF01E0917C04F0917D04EA17FB0726
:100E360028F4E1E0DE2EE0E0E0937E040895E0E0B1
:100E4600E0931806E0931906E0931A06E0931B0652
:100E5600E0E0E0931C06E0931D06E0931E06E09397
:100E66001F06E0E0E0932006E0938204E0E1E093D1
:100E76007F04A0917F04A03A18F50E948F190E9462
:100E86009519FF93EF93E0917F040E949C19AF910F
:100E9600BF910E94A619A0911C06B0911D068091D3
:100EA6001E0690911F060E94971AE0931C06F09367
:100EB6001D0660931E0670931F060E94C719D9CFA0
:100EC600E0E0E0937F04A0917F04A53010F00C943D
:100ED600F007E0E0E0931806E0931906E0931A069F
:100EE600E0931B06E0E1E0937E04A0917E04A03A25
:100EF60080F50E948F19BF93AF93A0E4B1E00E94E2
:100F0600AA1AAF91BF91AE0FBF1FE0917E04F0E029
:100F16000E949519FF93EF93E0917E040E949C191D
:100F2600AF91BF910E94A619A0911806B09119061B
:100F360080911A0690911B060E94971AE093180654
:100F4600F093190660931A0670931B060E9489197E
:100F5600CCCFE0911C06F0911D0660911E067091A3
:100F66001F06A0911806B091190680911A06909155
:100F76001B060E94001BA0F4E0911806F0911906CA
:100F860060911A0670911B06E0931C06F0931D06ED
:100F960060931E0670931F06E0917F04E09320067F
:100FA600E5E0F8E0FA93EA930E94CD19E150FF27B5
:100FB600662777270E94CD1AE0911806F091190648
:100FC60060911A0670911B060E94CD1A88E00E9455
:100FD60028182A960E94C71976CFE5E1F8E0FA9319
:100FE600EA9380E00E9428182296E1E3F8E0FA935B
:100FF600EA93E0911C06F0911D0660911E06709121
:101006001F060E94CD1A84E00E942818269608958D
:10101600E0910F06E03049F4E0E00E946F19EAE43F
:10102600F8E0FA93EA930E9415190E947A19E5E509
:10103600F8E0FA93EA930E941519E0912006E03051
:1010460091F4EAE00E946F190E94D319E0E6F8E0F5
:10105600FA93EA930E941519E6EFE8BB9798929ADD
:10106600939894986BC0A0912006A13091F4EAE081
:101076000E946F190E94D319E7E6F8E0FA93EA9303
:101086000E941519EAEFE8BB9798929A939A94985A
:1010960055C0A0912006A23091F4EAE00E946F1993
:1010A6000E94D319EEE6F8E0FA93EA930E94151926
:1010B600E5EFE8BB979892989398949A3FC0A091D1
:1010C6002006A330A1F4EAE00E946F190E94D3190A
:1010D600E5E7F8E0FA93EA930E941519EFEFE8BB0B
:1010E600E0EFE8BB979A92989398949827C0A091BE
:1010F6002006A43091F4EAE00E946F190E94D319E9
:10110600ECE7F8E0FA93EA930E941519E9EFE8BBD9
:1011160097989298939A949811C0EAE00E946F1952
:101126000E94D319E5E7F8E0FA93EA930E941519AD
:10113600E0EFE8BB979A92989398949808950E9446
:10114600D118E1E00E946F19E3E8F8E0FA93EA9318
:101156000E941519EAB5FBB5EC51F542DF01E4E64C
:10116600F0E00E94B21AE093F505F093F6050E94AE
:10117600EF19A091F505B091F605A436E0E0BE079B
:10118600A0F4AA30E0E0BE0730F4E1E00E94F719CF
:10119600E1E9F8E005C0E2E00E94F719E5E9F8E0C8
:1011A600FA93EA930E94151909C0E3E00E94F71921
:1011B600E8E9F8E0FA93EA930E9415190E947A1971
:1011C6000E94FC19EAB5FBB5E031A7E2FA0758F42C
:1011D600EBE00E94F719E3E5F8E0FA93EA930E9440
:1011E6001519ECE001C0EBE0EA93E1E0EA930E9416
:1011F600BD18EAB5FBB50E94EF190E94FC19B49917
:1012060014C00E947419B4990FC0EAB5FBB5EC324C
:10121600ACE4FA0728F4EAB5FBB5EC50FE4F02C081
:10122600ECE2FCE4FBBDEABD21C0B79916C00E9402
:101236007419B79911C0EAB5FBB5DF01ECE1F5E227
:10124600EA17FB0728F4EAB5FBB5E45FF14002C0F4
:10125600ECE1F5E2FBBDEABD09C0B69907C0EAB507
:10126600FBB5A0E0B0E00E94E91A01C073CF089573
:10127600E1E0E0930F06E0E0E093F905E093FA057C
:10128600E0E0E093F705E093F805E0E0E0930C0674
:10129600E0930D06E0E0F0E0E0930306F093040629
:1012A600E0930506F0930606E0930706F09308061A
:1012B600E0930906E0930A06E0930B06E5E20E9436
:1012C60080190E94D118E0E00E946F19EAE9F8E05F
:1012D600FA93EA930E941519369972C1E5B1F0E0C6
:1012E600E093FB05F093FC05A091F905B091FA0592
:1012F6001196A093F905B093FA05E2E0F0E0EA173B
:10130600FB0740F4E0E0E093F905E093FA05E1E03D
:10131600E0930C06A091F905B091FA05E5E0F0E03E
:10132600EA1BFB0BE062E7B9369AE091F705F0910C
:10133600F805ADEFB5E0EE0FFF1FAE0FBF1FE09152
:10134600FB05F091FC05ED93FC93E091F905F09116
:10135600FA05E093F705F093F805A0910C06A13085
:1013660011F00C94E30AA0910D06A330A8F5A3E0B2
:10137600B6E0BF93AF930E94C51AA091FD05B09148
:10138600FE05EA0FFB1FAF91BF91ED93FC93A5E01D
:10139600B6E0BF93AF930E94C51ADF01E091FF0547
:1013A600F0910006EA0FFB1FAF91BF91ED93FC93FE
:1013B600A7E0B6E0BF93AF930E94C51ADF01E091A4
:1013C6000106F0910206EA0FFB1FAF91BF91ED9364
:1013D600FC930E94021AC5C0A0910D06A33011F01D
:1013E6000C94360AA3E0B6E0BF93AF930E94081AA6
:1013F600AF91BF91ED93FC93A5E0B6E0BF93AF9399
:101406000E94081AAF91BF91ED93FC93A7E0B6E056
:10141600BF93AF930E94081AAF91BF91ED93FC93CF
:10142600EBEAF8E0FA93EA93E0910306F0910406FA
:10143600662777270E94CD1AE0910506F0910606E9
:10144600662777270E94CD1AE0910706F0910806D5
:10145600662777270E94CD1A8CE00E9428182E96C0
:101466000E94021A7EC0E091FD05E0930E060E94DE
:10147600101AEA17FB0738F40E94101A0E94D21AB3
:10148600EA1BFB0B0BC0E0910E06A0910306B09180
:1014960004060E94181AE0930906E068E09309061C
:1014A600E091FF05E0930E06E0910506F091060631
:1014B6000E941E1A48F4E0910506F09106060E9465
:1014C600241AE0930A060EC0A0910506B0910606FE
:1014D600E0910E060E94181AE0930A06EAE0F6E08A
:1014E6000E942C1AE0910106E0930E06E091070691
:1014F600F09108060E941E1A48F4E0910706F09142
:1015060008060E94241AE0930B060EC0A091070657
:10151600B0910806E0910E060E94181AE0930B0699
:10152600EBE0F6E00E942C1AEFEBF8E0FA93EA9370
:10153600E0910906FF27662777270E94CD1AE091DA
:101546000A06FF27662777270E94CD1AE0910B0629
:10155600FF27662777270E94CD1A8CE00E9428185D
:101566002E96E1EDF8E0FA93EA93E091FD05F0910D
:10157600FE05662777270E94CD1AE091FF05F091B8
:101586000006662777270E94CD1AE0910106F091A2
:101596000206662777270E94CD1A8CE00E9428183B
:1015A6002E96E0E0E0930C06E0910906EA93E0E06F
:1015B600EA9307D0E0910A06EA93E1E0EA9301D0C4
:1015C6008BCEE981E07819F4E981E03009F410C0A6
:1015D6000E94311A60F4A881A13019F4E0E0E0938A
:1015E6002006E881E03019F4E1E0E09320061CC013
:1015F600E981E030B1F0EF77E9830E94311A68F4AF
:10160600A881A13019F4E4E0E0932006E881E030F7
:1016160019F4E2E0E093200603C0E3E0E09320063D
:1016260003C0E3E0E09320060E940B08229608958B
:101636004F935F93BB278827EE27FF2760913F06CE
:1016460070914006488159817502F00D649F800DA6
:10165600E11DFB1F7403E00DF11D5603E00DF11DA6
:101666006091410670914206409196025091970210
:101676007502F00D649F800DE11DFB1F7403E00DE4
:10168600F11D5603E00DF11D60914306709144066D
:1016960040919802509199027502F00D649F800D59
:1016A600E11DFB1F7403E00DF11D5603E00DF11D56
:1016B60060913B0670913C0640919E0250919F02BC
:1016C6007502F00D649F800DE11DFB1F7403E00D94
:1016D600F11D5603E00DF11D60913D0670913E0629
:1016E6004091A0025091A1027502F00D649F800DF9
:1016F600E11DFB1F7403E00DF11D5603E00DF11D06
:101706004091960250919702409398025093990205
:1017160048815981409396025093970240919E02C8
:1017260050919F024093A0025093A102E0939E0223
:10173600F0939F026091490670914A0640919E027D
:1017460050919F02EE27FF277502F00D649F800DD2
:10175600E11DFB1F7403E00DF11D5603E00DF11DA5
:1017660060914B0670914C0640919A0250919B02F3
:101776007502F00D649F800DE11DFB1F7403E00DE3
:10178600F11D5603E00DF11D60914D0670914E0658
:1017960040919C0250919D027502F00D649F800D50
:1017A600E11DFB1F7403E00DF11D5603E00DF11D55
:1017B60060914506709146064091A2025091A3029F
:1017C6007502F00D649F800DE11DFB1F7403E00D93
:1017D600F11D5603E00DF11D609147067091480614
:1017E6004091A4025091A5027502F00D649F800DF0
:1017F600E11DFB1F7403E00DF11D5603E00DF11D05
:1018060040919A0250919B0240939C0250939D02F4
:1018160040919E0250919F0240939A0250939B02E0
:101826004091A2025091A3024093A4025093A502B4
:10183600E093A202F093A3027F2F6E2FEE27FF27DD
:1018460040914F06509150067502F00D649F800D31
:10185600E11DFB1F7403E00DF11D5603E00DF11DA4
:10186600E0933A03F0933B037F2F6E2FE09128031A
:10187600F091290388277702F00D669F800DE11D00
:10188600FB1F7603E00DF11D7603E00DF11D5F9160
:101896004F91229608954F935F93BB278827EE2793
:1018A600FF27609155067091560648815981750249
:1018B600F00D649F800DE11DFB1F7403E00DF11D0B
:1018C6005603E00DF11D6091570670915806409140
:1018D600A6025091A7027502F00D649F800DE11DCE
:1018E600FB1F7403E00DF11D5603E00DF11D609121
:1018F600590670915A064091A8025091A9027502A4
:10190600F00D649F800DE11DFB1F7403E00DF11DBA
:101916005603E00DF11D60915106709152064091FB
:10192600AE025091AF027502F00D649F800DE11D6D
:10193600FB1F7403E00DF11D5603E00DF11D6091D0
:101946005306709154064091B0025091B10275024F
:10195600F00D649F800DE11DFB1F7403E00DF11D6A
:101966005603E00DF11D4091A6025091A702409347
:10197600A8025093A902488159814093A602509328
:10198600A7024091AE025091AF024093B00250932D
:10199600B102E093AE02F093AF0260915F067091E0
:1019A60060064091AE025091AF02EE27FF27750206
:1019B600F00D649F800DE11DFB1F7403E00DF11D0A
:1019C6005603E00DF11D609161067091620640912B
:1019D600AA025091AB027502F00D649F800DE11DC5
:1019E600FB1F7403E00DF11D5603E00DF11D609120
:1019F6006306709164064091AC025091AD02750287
:101A0600F00D649F800DE11DFB1F7403E00DF11DB9
:101A16005603E00DF11D60912F067091300640913E
:101A2600B2025091B3027502F00D649F800DE11D64
:101A3600FB1F7403E00DF11D5603E00DF11D6091CF
:101A46005D0670915E064091B4025091B502750232
:101A5600F00D649F800DE11DFB1F7403E00DF11D69
:101A66005603E00DF11D4091AA025091AB0240933E
:101A7600AC025093AD024091AE025091AF0240933A
:101A8600AA025093AB024091B2025091B302409326
:101A9600B4025093B502E093B202F093B3027F2FE3
:101AA6006E2FEE27FF274091650650916606750258
:101AB600F00D649F800DE11DFB1F7403E00DF11D09
:101AC6005603E00DF11D7F2F6E2FE0912A03F09152
:101AD6002B0388277702F00D669F800DE11DFB1F03
:101AE6007603E00DF11D7603E00DF11D5F914F9138
:101AF600229608954F935F93BB278827EE27FF27EB
:101B060060916B0670916C06488159817502F00DE3
:101B1600649F800DE11DFB1F7403E00DF11D56034C
:101B2600E00DF11D60916D0670916E064091B60252
:101B36005091B7027502F00D649F800DE11DFB1FE9
:101B46007403E00DF11D5603E00DF11D60916F0663
:101B5600709170064091B8025091B9027502F00D6D
:101B6600649F800DE11DFB1F7403E00DF11D5603FC
:101B7600E00DF11D60916706709168064091BE0206
:101B86005091BF027502F00D649F800DE11DFB1F91
:101B96007403E00DF11D5603E00DF11D6091690619
:101BA60070916A064091C0025091C1027502F00D13
:101BB600649F800DE11DFB1F7403E00DF11D5603AC
:101BC600E00DF11D4091B6025091B7024093B80264
:101BD6005093B902488159814093B6025093B70297
:101BE6004091BE025091BF024093C0025093C10281
:101BF600E093BE02F093BF0260917506709176067F
:101C06004091BE025091BF02EE27FF277502F00DEC
:101C1600649F800DE11DFB1F7403E00DF11D56034B
:101C2600E00DF11D60917706709178064091BA0239
:101C36005091BB027502F00D649F800DE11DFB1FE4
:101C46007403E00DF11D5603E00DF11D6091790658
:101C560070917A064091BC025091BD027502F00D5A
:101C6600649F800DE11DFB1F7403E00DF11D5603FB
:101C7600E00DF11D60917106709172064091C202ED
:101C86005091C3027502F00D649F800DE11DFB1F8C
:101C96007403E00DF11D5603E00DF11D609173060E
:101CA600709174064091C4025091C5027502F00D00
:101CB600649F800DE11DFB1F7403E00DF11D5603AB
:101CC600E00DF11D4091BA025091BB024093BC0257
:101CD6005093BD024091BE025091BF024093BA029A
:101CE6005093BB024091C2025091C3024093C4027A
:101CF6005093C502E093C202F093C3027F2F6E2F6A
:101D0600EE27FF2740917B0650917C067502F00D69
:101D1600649F800DE11DFB1F7403E00DF11D56034A
:101D2600E00DF11D7F2F6E2FE0912C03F0912D0316
:101D360088277702F00D669F800DE11DFB1F760355
:101D4600E00DF11D7603E00DF11D5F914F91229696
:101D560008954F935F93BB278827EE27FF2760914F
:101D6600810670918206488159817502F00D649F43
:101D7600800DE11DFB1F7403E00DF11D5603E00D00
:101D8600F11D60918306709184064091C6025091C0
:101D9600C7027502F00D649F800DE11DFB1F7403E1
:101DA600E00DF11D5603E00DF11D60918506709161
:101DB60086064091C8025091C9027502F00D649FD3
:101DC600800DE11DFB1F7403E00DF11D5603E00DB0
:101DD600F11D60917D0670917E064091CE02509174
:101DE600CF027502F00D649F800DE11DFB1F740389
:101DF600E00DF11D5603E00DF11D60917F06709117
:101E060080064091D0025091D1027502F00D649F78
:101E1600800DE11DFB1F7403E00DF11D5603E00D5F
:101E2600F11D4091C6025091C7024093C8025093DB
:101E3600C902488159814093C6025093C702409116
:101E4600CE025091CF024093D0025093D102E0933C
:101E5600CE02F093CF0260918B0670918C06409172
:101E6600CE025091CF02EE27FF277502F00D649F38
:101E7600800DE11DFB1F7403E00DF11D5603E00DFF
:101E8600F11D60918D0670918E064091CA025091A7
:101E9600CB027502F00D649F800DE11DFB1F7403DC
:101EA600E00DF11D5603E00DF11D60918F06709156
:101EB60090064091CC025091CD027502F00D649FC0
:101EC600800DE11DFB1F7403E00DF11D5603E00DAF
:101ED600F11D60918706709188064091D20250915B
:101EE600D3027502F00D649F800DE11DFB1F740384
:101EF600E00DF11D5603E00DF11D6091890670910C
:101F06008A064091D4025091D5027502F00D649F65
:101F1600800DE11DFB1F7403E00DF11D5603E00D5E
:101F2600F11D4091CA025091CB024093CC025093CE
:101F3600CD024091CE025091CF024093CA025093F7
:101F4600CB024091D2025091D3024093D4025093D7
:101F5600D502E093D202F093D3027F2F6E2FEE27A5
:101F6600FF2740919106509192067502F00D649FED
:101F7600800DE11DFB1F7403E00DF11D5603E00DFE
:101F8600F11D7F2F6E2FE0912E03F0912F038827EE
:101F96007702F00D669F800DE11DFB1F7603E00DB5
:101FA600F11D7603E00DF11D5F914F912296089584
:101FB6004F935F93BB278827EE27FF2760919706ED
:101FC60070919806488159817502F00D649F800DC5
:101FD600E11DFB1F7403E00DF11D5603E00DF11D1D
:101FE6006091990670919A064091D6025091D70257
:101FF6007502F00D649F800DE11DFB1F7403E00D5B
:10200600F11D5603E00DF11D60919B0670919C0633
:102016004091D8025091D9027502F00D649F800D4F
:10202600E11DFB1F7403E00DF11D5603E00DF11DCC
:1020360060919306709194064091DE025091DF0202
:102046007502F00D649F800DE11DFB1F7403E00D0A
:10205600F11D5603E00DF11D6091950670919606EF
:102066004091E0025091E1027502F00D649F800DEF
:10207600E11DFB1F7403E00DF11D5603E00DF11D7C
:102086004091D6025091D7024093D8025093D9027C
:10209600488159814093D6025093D7024091DE027F
:1020A6005091DF024093E0025093E102E093DE029A
:1020B600F093DF026091A1067091A2064091DE02C4
:1020C6005091DF02EE27FF277502F00D649F800D09
:1020D600E11DFB1F7403E00DF11D5603E00DF11D1C
:1020E6006091A3067091A4064091DA025091DB023A
:1020F6007502F00D649F800DE11DFB1F7403E00D5A
:10210600F11D5603E00DF11D6091A5067091A6061E
:102116004091DC025091DD027502F00D649F800D46
:10212600E11DFB1F7403E00DF11D5603E00DF11DCB
:1021360060919D0670919E064091E2025091E302E5
:102146007502F00D649F800DE11DFB1F7403E00D09
:10215600F11D5603E00DF11D60919F067091A006DA
:102166004091E4025091E5027502F00D649F800DE6
:10217600E11DFB1F7403E00DF11D5603E00DF11D7B
:102186004091DA025091DB024093DC025093DD026B
:102196004091DE025091DF024093DA025093DB0257
:1021A6004091E2025091E3024093E4025093E5022B
:1021B600E093E202F093E3027F2F6E2FEE27FF27D4
:1021C6004091A7065091A8067502F00D649F800DF8
:1021D600E11DFB1F7403E00DF11D5603E00DF11D1B
:1021E6007F2F6E2FE0913003F0913103882777021D
:1021F600F00D669F800DE11DFB1F7603E00DF11DBE
:102206007603E00DF11D5F914F91229608954F934D
:102216005F93BB278827EE27FF276091AD06709155
:10222600AE06488159817502F00D649F800DE11D4F
:10223600FB1F7403E00DF11D5603E00DF11D6091C7
:10224600AF067091B0064091E6025091E702750222
:10225600F00D649F800DE11DFB1F7403E00DF11D61
:102266005603E00DF11D6091B1067091B2064091E2
:10227600E8025091E9027502F00D649F800DE11DA0
:10228600FB1F7403E00DF11D5603E00DF11D609177
:10229600A9067091AA064091EE025091EF027502CE
:1022A600F00D649F800DE11DFB1F7403E00DF11D11
:1022B6005603E00DF11D6091AB067091AC0640919E
:1022C600F0025091F1027502F00D649F800DE11D40
:1022D600FB1F7403E00DF11D5603E00DF11D409147
:1022E600E6025091E7024093E8025093E9024881E2
:1022F60059814093E6025093E7024091EE025091D5
:10230600EF024093F0025093F102E093EE02F09355
:10231600EF026091B7067091B8064091EE025091B7
:10232600EF02EE27FF277502F00D649F800DE11D79
:10233600FB1F7403E00DF11D5603E00DF11D6091C6
:10234600B9067091BA064091EA025091EB02750205
:10235600F00D649F800DE11DFB1F7403E00DF11D60
:102366005603E00DF11D6091BB067091BC064091CD
:10237600EC025091ED027502F00D649F800DE11D97
:10238600FB1F7403E00DF11D5603E00DF11D609176
:10239600B3067091B4064091F2025091F3027502B1
:1023A600F00D649F800DE11DFB1F7403E00DF11D10
:1023B6005603E00DF11D6091B5067091B606409189
:1023C600F4025091F5027502F00D649F800DE11D37
:1023D600FB1F7403E00DF11D5603E00DF11D409146
:1023E600EA025091EB024093EC025093ED024091C9
:1023F600EE025091EF024093EA025093EB024091B5
:10240600F2025091F3024093F4025093F502E093E6
:10241600F202F093F3027F2F6E2FEE27FF274091F3
:102426009106509192067502F00D649F800DE11D94
:10243600FB1F7403E00DF11D5603E00DF11DE09343
:102446003A03F0933B037F2F6E2FE0913203F09116
:10245600330388277702F00D669F800DE11DFB1F71
:102466007603E00DF11D7603E00DF11D5F914F91AE
:10247600229608954F935F93BB278827EE27FF2761
:102486006091C3067091C406488159817502F00DAA
:10249600649F800DE11DFB1F7403E00DF11D5603C3
:1024A600E00DF11D6091C5067091C6064091F602D9
:1024B6005091F7027502F00D649F800DE11DFB1F20
:1024C6007403E00DF11D5603E00DF11D6091C70682
:1024D6007091C8064091F8025091F9027502F00D0C
:1024E600649F800DE11DFB1F7403E00DF11D560373
:1024F600E00DF11D6091BF067091C0064091FE028D
:102506005091FF027502F00D649F800DE11DFB1FC7
:102516007403E00DF11D5603E00DF11D6091C10637
:102526007091C20640910003509101037502F00DAF
:10253600649F800DE11DFB1F7403E00DF11D560322
:10254600E00DF11D4091F6025091F7024093F8021A
:102556005093F902488159814093F6025093F7024D
:102566004091FE025091FF024093000350930103F5
:10257600E093FE02F093FF026091CD067091CE06C5
:102586004091FE025091FF02EE27FF277502F00DE3
:10259600649F800DE11DFB1F7403E00DF11D5603C2
:1025A600E00DF11D6091CF067091D0064091FA02C0
:1025B6005091FB027502F00D649F800DE11DFB1F1B
:1025C6007403E00DF11D5603E00DF11D6091D10677
:1025D6007091D2064091FC025091FD027502F00DF9
:1025E600649F800DE11DFB1F7403E00DF11D560372
:1025F600E00DF11D6091C9067091CA064091020373
:10260600509103037502F00D649F800DE11DFB1FC1
:102616007403E00DF11D5603E00DF11D6091CB062C
:102626007091CC0640910403509105037502F00D9C
:10263600649F800DE11DFB1F7403E00DF11D560321
:10264600E00DF11D4091FA025091FB024093FC020D
:102656005093FD024091FE025091FF024093FA0210
:102666005093FB02409102035091030340930403ED
:1026760050930503E0930203F09303037F2F6E2F1D
:10268600EE27FF274091D3065091D4067502F00D30
:10269600649F800DE11DFB1F7403E00DF11D5603C1
:1026A600E00DF11D7F2F6E2FE0913403F09135037D
:1026B60088277702F00D669F800DE11DFB1F7603CC
:1026C600E00DF11D7603E00DF11D5F914F9122960D
:1026D60008954F935F93BB278827EE27FF276091C6
:1026E600D9067091DA06488159817502F00D649F0A
:1026F600800DE11DFB1F7403E00DF11D5603E00D77
:10270600F11D6091DB067091DC0640910603509145
:1027160007037502F00D649F800DE11DFB1F740316
:10272600E00DF11D5603E00DF11D6091DD0670917F
:10273600DE0640910803509109037502F00D649F6F
:10274600800DE11DFB1F7403E00DF11D5603E00D26
:10275600F11D6091D5067091D60640910E035091F9
:102766000F037502F00D649F800DE11DFB1F7403BE
:10277600E00DF11D5603E00DF11D6091D706709135
:10278600D80640911003509111037502F00D649F15
:10279600800DE11DFB1F7403E00DF11D5603E00DD6
:1027A600F11D40910603509107034093080350938F
:1027B60009034881598140930603509307034091CA
:1027C6000E0350910F034093100350931103E093AF
:1027D6000E03F0930F036091E3067091E4064091B7
:1027E6000E0350910F03EE27FF277502F00D649F2D
:1027F600800DE11DFB1F7403E00DF11D5603E00D76
:10280600F11D6091E5067091E60640910A0350912C
:102816000B037502F00D649F800DE11DFB1F740311
:10282600E00DF11D5603E00DF11D6091E706709174
:10283600E80640910C0350910D037502F00D649F5C
:10284600800DE11DFB1F7403E00DF11D5603E00D25
:10285600F11D6091DF067091E006409112035091E0
:1028660013037502F00D649F800DE11DFB1F7403B9
:10287600E00DF11D5603E00DF11D6091E10670912A
:10288600E20640911403509115037502F00D649F02
:10289600800DE11DFB1F7403E00DF11D5603E00DD5
:1028A600F11D40910A0350910B0340930C03509382
:1028B6000D0340910E0350910F0340930A0350936A
:1028C6000B0340911203509113034093140350934A
:1028D6001503E0931203F09313037F2F6E2FEE2759
:1028E600FF274091E9065091EA067502F00D649FB4
:1028F600800DE11DFB1F7403E00DF11D5603E00D75
:10290600F11D7F2F6E2FE0913603F0913703882754
:102916007702F00D669F800DE11DFB1F7603E00D2B
:10292600F11D7603E00DF11D5F914F9122960895FA
:102936000E941206B49902C0E0E00CC0B59902C02C
:10294600E1E008C0B69903C09798E2E003C0B799E2
:1029560003C0E4E0E0932006B49B06C0B59B04C028
:10296600B69B02C0B79902C00E940B08A0918304CF
:10297600A13011F00C94CE160E941007E1E0ED157F
:1029860011F00C94CB16EE2DF0E0E656F040E093F5
:10299600C705F093C805FA93EA930E941B0BE093D0
:1029A6002803F0932903E091C705F091C805FA932F
:1029B600EA930E944E0CE0932A03F0932B03E091D6
:1029C600C705F091C805FA93EA930E947D0DE0933E
:1029D6002C03F0932D03E091C705F091C805FA93F7
:1029E600EA930E94AC0EE0932E03F0932F03E0913E
:1029F600C705F091C805FA93EA930E94DB0FE093AE
:102A06003003F0933103E091C705F091C805FA93BE
:102A1600EA930E940A11E0933203F0933303E091A4
:102A2600C705F091C805FA93EA930E943D12E09318
:102A36003403F0933503E091C705F091C805FA9386
:102A4600EA930E946C13E0933603F0933703E09108
:102A56002406EF5FE0932406A0912406AD3711F01B
:102A66000C946316E0912306EF5FE0932306E0E003
:102A7600E0932406E0937F040E94351ABF93AF9338
:102A8600A4E1B0E00E94AA1AAF91BF91AE0FBF1F9A
:102A96000E94C7190E943B1AAE0FBF1FE091260382
:102AA600F0912703ED93FC930E94351ABF93AF93E1
:102AB600A4E1B0E00E94AA1AAF91BF91AE0FBF1F6A
:102AC6000E94C7190E943B1AAE0FBF1FE091280350
:102AD600F0912903ED93FC930E94351ABF93AF93AF
:102AE600A4E1B0E00E94AA1AAF91BF91AE0FBF1F3A
:102AF6000E94C7190E943B1AAE0FBF1FE0912A031E
:102B0600F0912B03ED93FC930E94351ABF93AF937C
:102B1600A4E1B0E00E94AA1AAF91BF91AE0FBF1F09
:102B26000E94C7190E943B1AAE0FBF1FE0912C03EB
:102B3600F0912D03ED93FC930E94351ABF93AF934A
:102B4600A4E1B0E00E94AA1AAF91BF91AE0FBF1FD9
:102B56000E94C7190E943B1AAE0FBF1FE0912E03B9
:102B6600F0912F03ED93FC930E94351ABF93AF9318
:102B7600A4E1B0E00E94AA1AAF91BF91AE0FBF1FA9
:102B86000E94C7190E943B1AAE0FBF1FE091300387
:102B9600F0913103ED93FC930E94351ABF93AF93E6
:102BA600A4E1B0E00E94AA1AAF91BF91AE0FBF1F79
:102BB6000E94C7190E943B1AAE0FBF1FE091320355
:102BC600F0913303ED93FC930E94351ABF93AF93B4
:102BD600A4E1B0E00E94AA1AAF91BF91AE0FBF1F49
:102BE6000E94C7190E943B1AAE0FBF1FE091340323
:102BF600F0913503ED93FC930E94351ABF93AF9382
:102C0600A4E1B0E00E94AA1AAF91BF91AE0FBF1F18
:102C16000E94C7190E943B1AAE0FBF1FE0913603F0
:102C2600F0913703ED93FC930E94351ABF93AF934F
:102C3600A4E1B0E00E94AA1AAF91BF91AE0FBF1FE8
:102C46000E94C7190E943B1AAE0FBF1FE0913803BE
:102C5600F0913903ED93FC93E0E0E0932603E093D3
:102C66002703E0E0E0932803E0932903E0E0E09304
:102C76002A03E0932B03E0E0E0932C03E0932D037B
:102C8600E0E0E0932E03E0932F03E0E0E0933003CF
:102C9600E0933103E0E0E0933203E0933303E0E0B6
:102CA600E0933403E0933503E0E0E0933603E093EA
:102CB6003703E0E0E0933803E09339030E94891973
:102CC600A0912306A03111F00C94CB160E9469192D
:102CD600DD24E0E0E0937E04E0937F04E093820449
:102CE600A0918204AA3010F00C94B516E0E0E093AF
:102CF6008104A0918104A03190F5E0918004A4E8BC
:102D0600B4E0F0E0EE0FFF1FEA0FFB1FFF93EF9317
:102D1600E0918104ACE3B3E0F0E0BF93AF93A4E1AC
:102D2600B0E00E94AA1AAF91BF91AE0FBF1FE0910B
:102D36008204F0E0EE0FFF1FAE0FBF1F0E94C51A00
:102D4600AF91BF91ED93FC93E0918004EF5FE09328
:102D56008004E0918104EF5FE0938104CACF0E9472
:102D6600CD19BECFE0E0E09380040E9422070E94C6
:102D76000B08EEEDF8E0FA93EA93E0912006FF27C0
:102D8600662777270E94CD1A84E00E942818269687
:102D9600E0E0E0938304CECDFFCFE991F99130973F
:102DA6001AF4E095F095319608955F9BFECFECB14D
:102DB60008955D9BFECFE881ECB921960895A88120
:102DC600B9810E94C51A309749F00E94C51A3196FA
:102DD600ED93FC933197AA81A08304C0EA81EA931C
:102DE6000E94DC162396089526970E94051B00E094
:102DF600E889F9893196E88BF98B3197E4913E2F72
:102E0600E03011F40C942418E02FE03039F4353218
:102E160011F401E002C00E94401A12C1E130B1F47F
:102E2600353221F40E94401A00E00AC102E050E067
:102E360010E03D3211F411E003C13B3211F45BE2C4
:102E4600FFC0303211F450E2FBC002C0E23039F468
:102E560040E003E0303311F41068F2C004C0E33000
:102E660011F00C942318303310F03A3308F009C0EF
:102E7600A42FEAE0EA9FE02D4E2FE32FE0534E0FFA
:102E8600DFC0E32FE33631F40E94471AEC910E942B
:102E96004E1AD5C0E33741F40E94471A0E94551ACC
:102EA6000E94721A0E2F0AC0E03761F40E94471A78
:102EB6000E94551A0E947C1A0E2F186012601F7706
:102EC60020E038C0E43611F0E93611F4146002C08F
:102ED600E53731F4E0E7F7E0EE83FF8305E00DC068
:102EE600E83511F4186004C0E83711F00C94221884
:102EF600EAE7F7E0EE83FF8304E012FF15C00E94C5
:102F0600471A0E94C51AEA87FB87AA85BB851097D0
:102F16002CF40E949C1AEA87FB875DE2503011F080
:102F26000F5F01C01B7F06C00E94471A0E94C51A88
:102F3600EA87FB8710FD11C0041778F417FF08C055
:102F460012FF04C01B7F352F015001C030E301C0C2
:102F560030E20E94401A4150EFCF202F11FF1AC0D5
:102F66002030B9F013FF08C0EE81FF813196EE8361
:102F7600FF833197E49105C0AE81BF81ED91AE83A9
:102F8600BF83EA930E945C1A403009F041502150F9
:102F9600E7CF4CC030E3EE81FF813296EE83FF83AC
:102FA60032970E94C91AE887F987AA85BB85AE17AA
:102FB600BF0720F03F5FAE1BBF0BC9F7AA87BB87D1
:102FC600E9E3E31728F413FF02C0395F01C0395D56
:102FD60014FD1EC0E0E3E31730F0A885B985A130E3
:102FE600E0E0BE0711F410610AC0421710F010FFAE
:102FF60001C013C030E217FF0BC030E3106112FFAF
:1030060007C01B7F5A930E945C1A403009F041505A
:103016000E94401A403009F041502150A885B985D8
:10302600E1E0F0E0EA17FB0708F4B4CF10FF07C0B1
:10303600403029F04150E0E20E944E1AF9CF00E0FC
:10304600D7CE0E940C1B62960895FF92F82E229707
:103056001A930A93DE010E94931A0A2F1B2FE0E0AF
:10306600EA83EB83DE0114960E94931A0E94C51A26
:10307600FA93EA931A930A93FE013696FA93EA9321
:103086000E94F716198108812496FF900895A99148
:10309600B991E991F99130962AF4E095F095319637
:1030A6006DE26D93E89480E197E20DD088EE93E0AF
:1030B6000AD084E6992707D08AE005D06E2F10D073
:1030C60066276C9308956627E817F90720F063953D
:1030D600E81BF90BC9F7662311F416F008956894F6
:1030E600605D6D930895FFE0FA95F1F70895A4B336
:1030F600AF70A4BBA99AA8980E947618AA9A0E94B3
:103106007618A3B3AA980E947618AA9A0E947618EF
:10311600AA98A7FDF1CF0895A07FAB2BA5BBAA9ACD
:103126000E947618AA980E9476180895A998A4B3C2
:10313600A76FA4BBB5B3BF70A8810E948F18A881E2
:10314600A2950E948F18A99A21960895AA9A0E947C
:103156007618E3B3AA980E947618E07F08950E9435
:1031660076180E94A918AE2F0E94A918A998E29570
:10317600EA2B08950E947A18E881F0E0EF5FF84F95
:10318600E081A981EA0FEA930E949918E981E09308
:103196000507E881E0930607229608950E947A18AB
:1031A600E2E00E94621AECE00E94621AE1E0EA9311
:1031B6000E949918E0E0E0930607E093050708955A
:1031C600EF93FF93A8816894AA3061F0E894E091A8
:1031D6000507EF5FE0930507E0910707A091050754
:1031E600EA1768F4E0910607EF5FE0930607E0E070
:1031F600EA93E0910607EA930E94BD182EF077DF66
:10320600A89AA881AA9392DFFF91EF91219608953B
:10321600F981E881A191AA2319F0AA93D1DFFACF07
:1032260022960895E881F981C895002021F031960B
:103236000A92C6DFF9CF22960895AA27BB271197CF
:10324600F1F70895A998A4B3A76FA4BBB5B3BF704F
:10325600A8810E948F18A99A21960895AA98A898DD
:10326600E881E0930707E058E0930307E881E0541C
:10327600E09304070E94671A0E94671A0E94671A61
:103286000E942019E0E2EA930E9425190E94201963
:10329600E8E20E946D1AE4E00E946D1AE5E80E94D9
:1032A6006D1AA4B3AF70A4BBA99A0E94B218E530F8
:1032B60011F0E0E009C00E947A18E6E0EA930E9465
:1032C60099180E94D118E1E021960895E0E0E09374
:1032D6002306E09324060895EA93E0E0EA930C942B
:1032E600BD18E4EFF1E0FA93EA930C94871AE0E054
:1032F600EA93E1E0EA930C94BD18E7B9E7ECE6B986
:103306000895E0E0E0938304EE2D0895E0917E04B5
:10331600EF5FE0937E040895A4E5B0E0E0917F04BA
:10332600F0E00895EE0FFF1FEA0FFB1F0E94C91A77
:103336000895A4E8B4E0F0E0EE0FFF1FAE0FBF1F44
:103346000E94C51A08950E94D21AEA1BFB0B0E941E
:10335600A51AE0931406F09315066093160670936B
:103366001706E0911406F0911506FA93EA930E9467
:10337600D01666277727E0931006F0931106609320
:103386001206709313060895E0917F04EF5FE093B1
:103396007F040895E0918204EF5FE093820408952C
:1033A600E0911C06F0911D06FA93EA930E94D0164E
:1033B600FA93EA93E1E7F2E0FA93EA930E944A1855
:1033C600E1E7F2E0FA93EA930E940B19EAE0EA9346
:1033D600E1E0EA930C94BD18FA93EA93E8E7F2E089
:1033E600FA93EA930C944A18EA93E1E0EA930C9470
:1033F600BD18E8E7F2E0FA93EA930C940B19E09112
:103406000D06EF5FE0930D0608950E94C51ADF01D1
:10341600E3E0F0E00E94B21A0895E0910306F0910D
:103426000406A0910E06B0E00895F0E00E94D21ABC
:10343600EA1BFB0B0895A0910E06B0E0EA17FB0706
:103446000895A0910E06B0E00E94D21AEA1BFB0B6B
:103456000895DF01EC91E068EC930895A981EAE014
:10346600EA170895E0917E04ACE3B3E0F0E0089536
:10347600E150F0E0EE0FFF1F08953A93ED85FE85CB
:10348600FA93EA930C94E216AE85BF851497AE873D
:10349600BF8714960895EA93ED85FE85FA93EA931D
:1034A6000C94E2160E94C51AEE83FF83FA93EA9300
:1034B6000895ED85FE85FA93EA930C94E216EA9355
:1034C6000E9499180C947A180E942019E0E3EA9356
:1034D6000C942519EA930E9499180C942019A99125
:1034E600B991EE27FF276D91662311F03196FBCF38
:1034F6000895AA27BB27E991F9910590002011F0BC
:103506001196FBCFFD010895E991F991309639F0B6
:1035160080EA9FE00197F1F7A8953197C9F70895DA
:103526000024AF0DB01D0895EA0FFB1F681F791F19
:103536000895E095F09531960895EE0FFF1FEE0F72
:10354600FF1F08956F2F660F660B762F0895FA9F5B
:10355600F02DEB9FF00DEA9FE02DF10D089500246C
:10356600112490E1AA0FBB1F001C111C0E1A1F0A82
:1035760018F40E0E1F1E01C0A1609A9599F7FD0161
:10358600D0010895ED91FC91119708950590F4915D
:10359600E02D08957A936A93FA93EA9308951B2E81
:1035A600BF2FF12D1A2EAE2FE12D0895119602D0C0
:1035B600FE2F1197E199FECFFF93FFB7F894AEBBAC
:1035C600BFBBE09AEDB3FFBFFF91089507D01196F8
:1035D600EF93EF2F03D0EF9111970895E199FECF66
:1035E6009FB7F894AEBBBFBBE09A8DB3E81719F04E
:1035F600EDBBE29AE19A9FBF0895AE17BF07860713
:10360600970708955A934A933A932A931A930A93DB
:1036160008955D814C813B812A8119810881089535
:00000001FF
